:100000000C94D12A0C94F92A0C94F92A0C94F92A0C
:100010000C94F92A0C94F92A0C94F92A0C94F92AD4
:100020000C94F92A0C94F92A0C94A92E0C94182FEC
:100030000C94F92A0C94F92A0C94F92A0C94F92AB4
:100040000C94F92A0C94F92A0C94F92A0C94F92AA4
:100050000C94F92A0C94F92A0C94F92A0C944A313C
:100060000C94F92A0C94F92A0C94F92A0C94F92A84
:100070000C94F92A0C94F92A0C94F92A0C94F92A74
:100080000C94F92A0C94F92A0C94F92A0C94F92A64
:100090000C94F92A0C94F92A0C94F92A0C94F92A54
:1000A0000C94F92A0C94F92A0C94F92A0000000007
:1000B000003E5B4F5B3E3E6B4F6B3E1C3E7C3E1CEE
:1000C000183C7E3C181C577D571C1C5E7F5E1C0034
:1000D000183C1800FFE7C3E7FF0018241800FFE7EB
:1000E000DBE7FF30483A060E2629792926407F05AE
:1000F0000507407F05253F5A3CE73C5A7F3E1C1CC4
:1001000008081C1C3E7F14227F22145F5F005F5F83
:1001100006097F017F006689956A6060606060946F
:10012000A2FFA29408047E040810207E2010080874
:100130002A1C08081C2A08081E101010100C1E0C7F
:100140001E0C30383E3830060E3E0E060000000011
:100150000000005F00000007000700147F147F14F8
:10016000242A7F2A1223130864623649562050003D
:1001700008070300001C2241000041221C002A1C29
:100180007F1C2A08083E0808008070300008080814
:100190000808000060600020100804023E51494534
:1001A0003E00427F400072494949462141494D3352
:1001B0001814127F1027454545393C4A49493141B9
:1001C000211109073649494936464949291E000087
:1001D00014000000403400000008142241141414DC
:1001E0001414004122140802015909063E415D59C8
:1001F0004E7C1211127C7F494949363E41414122D1
:100200007F4141413E7F494949417F090909013EFA
:10021000414151737F0808087F00417F4100204021
:10022000413F017F081422417F404040407F021C33
:10023000027F7F0408107F3E4141413E7F0909094A
:10024000063E4151215E7F09192946264949493216
:1002500003017F01033F4040403F1F2040201F3FDC
:100260004038403F63140814630304780403615961
:10027000494D43007F4141410204081020004141A3
:10028000417F04020102044040404040000307084F
:100290000020545478407F2844443838444444284B
:1002A000384444287F385454541800087E090218F2
:1002B000A4A49C787F0804047800447D400020407A
:1002C000403D007F1028440000417F40007C0478BE
:1002D00004787C080404783844444438FC18242406
:1002E0001818242418FC7C08040408485454542486
:1002F00004043F44243C4040207C1C2040201C3C03
:100300004030403C44281028444C9090907C4464F9
:10031000544C44000836410000007700000041368C
:10032000080002010204023C2623263C1EA1A16112
:10033000123A4040207A3854545559215555794144
:100340002154547841215554784020545579400C1B
:100350001E527212395555555939545454593955FC
:100360005454580000457C410002457D420001453F
:100370007C40F0292429F0F0282528F07C545545AC
:10038000002054547C547C0A097F4932494949323F
:100390003248484832324A4848303A4141217A3A54
:1003A00042402078009DA0A07D39444444393D401E
:1003B00040403D3C24FF2424487E4943662B2FFCCB
:1003C0002F2BFF0929F620C0887E09032054547979
:1003D000410000447D413048484A32384040227A4A
:1003E000007A0A0A727D0D19317D2629292F2826C7
:1003F0002929292630484D402038080808080808CF
:100400000808382F10C8ACBA2F102834FA00007B27
:10041000000008142A142222142A1408950022002D
:1004200095AA005500AAAA55AA55AA000000FF00E7
:10043000101010FF00141414FF001010FF00FF1024
:1004400010F010F0141414FC001414F700FF000056
:10045000FF00FF1414F404FC141417101F10101FD5
:10046000101F1414141F00101010F0000000001FC3
:10047000101010101F10101010F010000000FF10CE
:100480001010101010101010FF10000000FF1400CA
:1004900000FF00FF00001F10170000FC04F41414FC
:1004A0001710171414F404F40000FF00F7141414C8
:1004B00014141414F700F7141414171410101F1048
:1004C0001F141414F4141010F010F000001F101F6B
:1004D0000000001F14000000FC140000F010F010D9
:1004E00010FF10FF141414FF141010101F00000050
:1004F00000F010FFFFFFFFFFF0F0F0F0F0FFFFFF54
:100500000000000000FFFF0F0F0F0F0F38444438AA
:10051000447C2A2A3E147E02020606027E027E02E5
:1005200063554941633844443C04407E201E200604
:10053000027E020299A5E7A5991C2A492A1C4C7241
:1005400001724C304A4D4D303048784830BC625AC8
:10055000463D3E494949007E0101017E2A2A2A2A58
:100560002A44445F444440514A444040444A514034
:100570000000FF0103E080FF000008086B6B0836F5
:1005800012362436060F090F060000181800000066
:100590001010003040FF0101001F01011E00191D55
:1005A0001712003C3C3C3C0000000000F0F89C8E20
:1005B0008783878E9CF8F00000FEFF03030303038C
:1005C000070EFCF80000FEFF0303030303070EFC05
:1005D000F80000FFFF00000000000000FFFF000027
:1005E000FEFF8383838383C7EE7C380000F8FC0E14
:1005F00007030303070EFCF800003F7FE0C0808084
:10060000C0E07F3FFFFF01010101010101FFFF0089
:1006100000FFFF0C0C0C0C1C3E77E3C100007FFFB9
:10062000C0C0C0C0C0E0703F1F00001F3F70E0C0EE
:10063000C0C0E0703F1F00007FFFC1C1C1C1C1E366
:10064000773E1C00001F3F70E0C0C0C0E0703F1F3D
:10065000000000000001FFFF01000000D5F08D1434
:10066000A1C881CFD9F1AF20003C3C0000000000C0
:10067000000000000000000000008080C0E0A0E05A
:10068000F0B0F0F0B898787818787898B870F0B042
:1006900070E0E0E0C080800000000000000000008A
:1006A000000000000000000000000000000080804A
:1006B0009090109282830301928311801213811013
:1006C0001003039000901303901081129380118304
:1006D000920183038292909080808000000000004D
:1006E000000000000000004040C04040000000400A
:1006F000000040004000004000000040004000407A
:100700000040004000400000004040004000000069
:100710000040000000404040404000000000000059
:100720000000000196939F9E00000000040000005E
:1007300000000000000400000000000400000000B1
:1007400000000000000400000000000004000000A1
:100750000000000004040000000000000000002869
:100760003C3C2F27000020200200200020002022F7
:1007700000020020002000220020002000200002B3
:1007800000200000000000002220000202202020A3
:1007900022220000000000000000000000001010F5
:1007A00090908090109000801000801080801080C9
:1007B0008000909000908000908010809010809039
:1007C0009080101090908090101010000000000099
:1007D0000000000000000000000000000000000415
:1007E000000010101010405050D0D09090D084D005
:1007F000801080908090C0D0505040101010100099
:1008000000040000000000000000000000000000E4
:1008100000000000000000000000000000000000D8
:1008200000000000000000000001010101010101C1
:1008300000000000000000000000000000000000B8
:1008400000000000000000000000000000000000A8
:10085000000000000000000000008080C0E060E0B8
:10086000F0F030B0F8F838F838F818F8F8B0B0F020
:10087000F0E060E0C08080000000000000000000A8
:100880000000000000000000000000000000808068
:100890009090909282830313918013829110821022
:1008A0001300109300931000931182109182139003
:1008B000911383038292909080808000000000005A
:1008C0000000000000000040C0C0404000000040A8
:1008D0004000400000004040000000400040004058
:1008E0000040004000400000004040004000000088
:1008F0000040000000404040404000000000000078
:100900000000000997939700000400000000000415
:1009100000000000000000000000000400000000D3
:1009200000000000000400000000000000000000C3
:100930000000000004040000000000000000002B84
:100940003A3C2F200200002022002200000020223A
:1009500000000020002000200020002000200002D5
:1009600000200000000000002220000200202020C3
:100970002222000000000000000000000000101013
:1009800090908090109000801010801080801080D7
:100990008000909000909000808010809010809057
:1009A0009080101090908090901010000000000037
:1009B0000000000000000000000000000000000433
:1009C000000010101010405050D0D090D0D0C0D0A7
:1009D00000D080908090D0D0505040501010100027
:1009E0000004000000000000000000000000000003
:1009F00000000000000000000000000000000000F7
:100A000000000000000000000001010101010101DF
:100A100000000000000000000000000000000000D6
:100A200000000000000000000000000000000000C6
:100A3000000000000000000000008080C060E06056
:100A4000F0B0F070B818F838B838F818B870F0701E
:100A5000F060E0E0C08080000000000000000000C6
:100A60000000000000000000000000000000808086
:100A70000090801292831381121381100283100060
:100A80008093030090000393800010830210800184
:100A9000128013839202801000808000000000000A
:100AA0000000000000000040408040004000400086
:100AB00000400000404000004040000040000000B6
:100AC00040000000400000400000004000004040A6
:100AD00000004000400040004040000000000000D6
:100AE0000000000992939F9E00000000000000009B
:100AF00000000000000000000400000004000000EE
:100B000000000000000000000000000400000400DD
:100B100000040004000000000000000000000028A5
:100B2000241C2F072000200000222000202000008D
:100B30002020000020000000200000200000000015
:100B400000000020000020220000220020022002DD
:100B50002020000000000000000000000000101035
:100B600000801000801080108080108000108000B5
:100B70001090000090000090100090100080100075
:100B800000108010900010908010100000000000F5
:100B90000000000000000000000000000000000055
:100BA00000001010004050401090C0D09080908005
:100BB000D080D08090C090905040505004101000D1
:100BC0000004000000000000000000000000000021
:100BD0000000000000000000000000000000000015
:100BE00000000000000000000001010101010101FE
:100BF00001000000000000000000000000000000F4
:100C000000000000000000000000000000000000E4
:100C1000000000000000000000008080C0E0E02034
:100C2000B0503030D8389818F8189838D83030503C
:100C3000F020E0E0408080000000000000000000A4
:100C400000000000000000000000000000008080A4
:100C50000090901212031182010082110080100393
:100C600000900000930000900003108000138200A9
:100C70001183138192029090908080000000000008
:100C800000000000000000404080C0004000400024
:100C90000040000000400000400000004000000054
:100CA0004000000040000000400000400000004004
:100CB00000004000400040004040000000000000F4
:100CC0000000089192969D07929C04000004000089
:100CD0000000000004000000040000000400000008
:100CE00000000000000000000400000400000400F8
:100CF00000040004000400000000000000000128BF
:100D000024343B2E26212000002200000020000079
:100D1000220000002200000020000000220000202D
:100D200022000020020020220000220020022002D7
:100D30002020000000000000000000000000101053
:100D400010909000901080108000108000108000A3
:100D50000090000090000090100080100080900033
:100D600080108010901010901010100000000000F3
:100D7000000000000000000000000000000000046F
:100D800000001010005054405090D0C09080D0808F
:100D9000D080D0C090D0D090504050501010100053
:100DA000000400000000000000000000000000003F
:100DB0000000000000000000000000000000000033
:100DC000000000000000000000010101010101011C
:100DD0000000000000000000000000000000000013
:100DE0000000000000000000000000000000000003
:100DF000000000000000000000008080C0E0A0E0D3
:100E000070B0F0F038B8787818787898B870F0B09A
:100E100070E0E0E0C0808000000000000000000002
:100E200000000000000000000000000000008080C2
:100E300080909092829383119213018013129110EB
:100E400010031390009093031010811313801183EB
:100E50009211839392929090808080000000000015
:100E60000000000000000040404040C0C080004042
:100E700000004040000000400040004000400040B2
:100E800000400040004000000040400040000000E2
:100E90004040000000404040404000000000000092
:100EA000000000009192921C0103039400000000D6
:100EB0000000000000000000000000000000000032
:100EC000000000000000000000000400040000001A
:100ED00000000000040400000000000000000022E8
:100EE00028242433382C0C2200002000000000208D
:100EF0000000000000200022000000200020000070
:100F000000220000200200002220200200200020F9
:100F1000202200000000000000000000000010106F
:100F20001090809010000080108080108080100051
:100F30008000801000908000908000809010809051
:100F40001080101010909090101010000000000001
:100F5000000000000000000000000000000000048D
:100F6000000010101010405040D4D090D09090D07D
:100F700080D080D0D090C0D05050401010101000C1
:100F8000000400000000000000000000000000005D
:100F90000000000000000000000000000000000051
:100FA000000000000000000000010101010101013A
:100FB0000000000000000000000000000000000031
:100FC0000000000000000000000000000000000021
:100FD000000000000000000000008080C0E060E031
:100FE00070B070F038D838E808F838D838F070B0F9
:100FF00070E060E0C08080000000000000000000A1
:1010000000000000000000000000000000008080E0
:1010100080901092021383130182110291000390B9
:1010200003009003001380000390030091021182DB
:101030000113831302921090808080000000000052
:1010400000000000000000404040004040C000C0E0
:101050004000004000004040000040000000400010
:101060000000400000004000000040000040000080
:1010700040000040004000404040000000000000F0
:10108000000000040C919192920C01020303049061
:101090000000040000000400000004000000040040
:1010A0000000040000000400000000000000000038
:1010B0000000040004040000000000000000002202
:1010C00023280A24203208342C0C0320000022009C
:1010D0000000220000002200000022000000220088
:1010E000000022000020000020000020002002203C
:1010F000222200000000000000000000000010108C
:1011000010908090008010800010800090800090EF
:10111000000090000080900000900000900080107F
:1011200000801080009080901010100000000000DF
:1011300000000000000000000000000000000000AF
:10114000000010101010405440D08090C09080D00B
:1011500000509090D49080D040504010101010005B
:10116000000000000000000000000000000000007F
:10117000000000000000000000000000000000006F
:101180000000000000000000000101010101010158
:10119000000000000000000000000000000000004F
:1011A000000000000000000000000000000000003F
:1011B000000000000000000000008080C0C0E0E0EF
:1011C000F0B0F0703898F8781878789838F0F0B077
:1011D00070E0E0E0C080800000000000000000003F
:1011E00000000000000000000000000000008080FF
:1011F0009090909282930311928301801213810048
:101200009003138000901303101081121380118338
:1012100092018313829290908080800000000000F1
:10122000000000000000004040404040404040803E
:101230000040C000000000000040004000400040AE
:10124000004000400040000000404000400000001E
:1012500040400000004040404040000000000000CE
:10126000000000040400849191921C040300030018
:1012700007980000000400000000000000000000CB
:10128000000000040004000000000000040000044E
:101290000000000004040000000000000000002224
:1012A00020200028202422120C242C200E01202291
:1012B000002000220020002000200020002000004C
:1012C000002200002000000020200002002000205A
:1012D00000220000000000000000000000001010CC
:1012E000909080901090008010808010808010007E
:1012F00090000090009080000080108090108090FE
:10130000900010101090809010101000000000004D
:1013100000000000000000000000000000000004C9
:10132000000010101010505050D090909090C0D0ED
:10133000805080D08090C0D05050401010101000CD
:101340000004000000000000000000000000000099
:10135000000000000000000000000000000000008D
:101360000000000000000000000101010101010176
:10137000000000000000000000000000000000006D
:10138000000000000000000000000000000000005D
:10139000000000000000000000008080C0E060E06D
:1013A00070B070F038D838E808E838F838F070B025
:1013B00070E0E0E0C080800000000000000000005D
:1013C000000000000000000000000000000080801D
:1013D00080901092021383138102110291000390F6
:1013E00003009013001380000390031091021182F8
:1013F000811383130292109080808000000000000F
:10140000000000000000004040400040004000405C
:101410004040C04000C040000000400000004000CC
:1014200000004000000040000000400000400000BC
:10143000400000400040004040400000000000002C
:10144000000000040400040008909193920C000135
:101450000003020007909C0000000400000004004C
:101460000000040000000400000000000004000070
:10147000000004000404000000000000000000223E
:10148000222002200320082024231008043C2400EA
:101490000E002200000022000000220000002200B6
:1014A0000000220000200000200000200020022078
:1014B00022220000000000000000000000001010C8
:1014C000109080900080108000908000108000902C
:1014D000000090800080900000900080900080903C
:1014E000008010800090809010101000000000001C
:1014F00000000000000000000000000000000000EC
:10150000000010101010405040D08090C0908050CB
:1015100000508090C090C0D0405050101014100067
:1015200000000000000000000000000000000000BB
:1015300000000000000000000000000000000000AB
:101540000000000000000000000101010101010194
:10155000010000000000000000000000000000008A
:10156000000000000000000000000000000000007B
:10157000000000000000000000008080C0E060E08B
:10158000F0F030B0F8F818F818F81878F8B0B07033
:10159000F0E060E0C080800000000000000000007B
:1015A000000000000000000000000000000080803B
:1015B0008090109282930313919003829110821174
:1015C00013009093009310001311821091821390D6
:1015D000911383838292909090808000000000009D
:1015E000000000000000004040404040000000407B
:1015F000400000004040C00000C0404000400040AB
:10160000004000400040000000404000004040001A
:10161000004000400040004040400000000000004A
:1016200000000004040000000004000004909192F7
:101630000E04010300010000069990000000000064
:10164000000000000004000000000000040000048E
:10165000040000000404000000000000000000225C
:101660002220202002020020030028042322180444
:10167000003C202006280020002000200020000040
:101680000020000020000000222020000020202058
:1016900022220000000000000000000000001010E6
:1016A000109080909000008010108010908010802A
:1016B00080008090009080008080108090108010CA
:1016C00090801010109090901010100000000000FA
:1016D0000000000000000000000000000000000406
:1016E000000010101050405050D0D090909090C0FA
:1016F00000D08090D09090D040504010101010003A
:1017000000040000000000000000000000000000D5
:1017100000000000000000000000000000000000C9
:1017200000000000000000000001010101010101B2
:1017300000000000000000000000000000000000A9
:101740000000000000000000000000000000000099
:10175000000000000000000000008080C060E06029
:10176000F0B0F070B818F838B818F818B870D0B0F1
:10177000F060E0E0C0808000000000000000000099
:101780000000000000000000000000000000808059
:1017900000109002928313811213801002831000B4
:1017A00000930300900003938000109302108003C5
:1017B00012811383920290100080800000000000CC
:1017C00000000000000000404000400040004000D9
:1017D00000400000404000004040C0000000C04009
:1017E00040000040400000404000004000004040F9
:1017F00000004000400040004040000000000000A9
:1018000000000004000400040000000000000000CC
:101810000C9091920E04010300000100049B91942E
:1018200000000000040000000000000400000400AC
:101830000004000400000000000000000000002080
:1018400020022002200022000020200023000804A3
:101850002322380C04003C20220D08002000002028
:101860002000002020002022000020002002200272
:101870002020000000000000000000000000101008
:101880000080908090108010808010800010800078
:101890001090000090000090100080100080100058
:1018A0008010800090001090801010000000000058
:1018B0000000000000000000000000000000000424
:1018C00000001010100050005480D0D09080D080C4
:1018D000D080D08090C09080104050100410100034
:1018E00000040000000000000000000000000000F4
:1018F00000000000000000000000000000000000E8
:1019000000000000000000000001010101010101D0
:1019100000000000000000000000000000000000C7
:1019200000000000000000000000000000000000B7
:1019300000000000000000000000808040E0E02087
:10194000B0503030D8289818F8189828D838305027
:10195000B020E0E0408080000000000000000000B7
:101960000000000000000000000000000000808077
:101970000010800212011182010082110080100308
:10198000001000009300001000031080001182007E
:10199000018211011202801000808000000000000E
:1019A0000000000000000040400040004000000037
:1019B0000040000000000000400000004040C00067
:1019C0004000C00040000000400000000000004057
:1019D0000000000040004000404000000000000007
:1019E00000000000000400040000000000040000EB
:1019F000000000000C90919204000002060200001A
:101A0000049291900C00000000000004000000000F
:101A1000000400040000000000000000000000209E
:101A20002002200220000000002200000000000030
:101A30002300080422203004660430202204080019
:101A400023000000000000220000200020022002ED
:101A50002020000000000000000000000000101026
:101A600000801000800080100000108000108000B6
:101A700000800000900000800000801000801000B6
:101A80000010800080001080801010000000000016
:101A90000000000000000000000000000000000442
:101AA0000000100000405040108080C08080908076
:101AB000D080900080C08080104050400000100016
:101AC0000004000000000000000000000000000012
:101AD0000000000000000000000000000000000006
:101AE00000000000000000000001010101010101EF
:101AF00000000000000000000000000000000000E6
:101B000000000000000000000000000000000000D5
:101B1000000000000000000000008080C0E0E0E065
:101B20003070B07038B87818F81878B87870B0702D
:101B3000B0E0E0C0C08080000000000000000000B5
:101B40000000000000000000000000000000004055
:101B5000000000040E05830904061108060100397F
:101B6000062001003F00002006380001062811026F
:101B7000140993050E04000000400000000000005E
:101B8000000000000000004020000022000144008E
:101B90000000000800000801000001001200000021
:101BA000100000000000010000010000000880009B
:101BB0000040400100200000004000000000000044
:101BC000000064900808082404040404026202026D
:101BD000020202038B032141D90119010921194194
:101BE000D9412103830302020202026202060404B5
:101BF000042408180890640000000000000002207F
:101C00000001015202020204040404040404040456
:101C10007112028E4000000040000000408E12133E
:101C200071040404040404040404020202520101C5
:101C30000020020000000000000000000000002062
:101C4000000800001000108000008000000001006B
:101C500004040700240007040440010000080000F9
:101C600080011002100000080004000000000000C5
:101C7000000000000000000000000000000000065E
:101C8000020018001020500400C140A00088A020CD
:101C90002920A88800A040C140045120100019004C
:101CA000030600000000000000000000000000002B
:101CB0000000000000000000000000000000000024
:101CC000000000000000000000010101010101010D
:101CD0000000000000000000000000000000000004
:101CE00000000000000000000000000000000000F4
:101CF000000000000000000000008080C0E0A06044
:101D0000F0F070F078F87878F87878F878F070F08B
:101D1000F060E0E040808000000000000000000073
:101D20000000000000000000000000000000008033
:101D30000000001C261B0B45215A09C522190482EC
:101D4000710E4901FF00010C718204192245091A24
:101D500027450B13261C00400080000000000000F7
:101D600000000000000000000000011880804040DA
:101D7000442428A021101110101010131810181846
:101D80009B181810901310101010111021202024EF
:101D90005440408080180100000000000000000056
:101DA0000000F0080402030980000400000208009B
:101DB0000000000000000000000000004A000000D9
:101DC00008000000000000000000080200000400FD
:101DD000000101020408F000000000000000000102
:101DE0000204088910102020204440408080808018
:101DF000302024E409000300040003004BE4A42085
:101E00003080808040404044202020101081090410
:101E100002010000000000000000000000000A11A4
:101E2000042001800200800000000000060111086B
:101E300046407004C4007040460811014600080086
:101E40000400800242800120001008000000000011
:101E5000000000000000000000000000000100037E
:101E600004000800200060000070A08140A0A000D5
:101E7000D680A0A04081A0480000401021040C089A
:101E8000040300010000000000000000000000004A
:101E90000000000000000000000000000000000042
:101EA000000000000000000000000101010101002D
:101EB0000000000000000000000000000000000022
:101EC0000000000000000000000000000000000012
:101ED0000000000000000000000080804040E0E0C2
:101EE00090D0D0F0E8F0D8D0F8F0D8F0E8F0D0D02A
:101EF00090E0E04040808000000000000000000012
:101F00000000000000000000000000000000004091
:101F100080000048904A5A25159A4A24158BE3956B
:101F20008BE79B83FF839BE58B9DE78B15244A8A78
:101F30001525484A94580000804000000000000029
:101F400000000000000000800890422010100808E7
:101F5000242406020301110D430101704700000013
:101F60007F000000073801010B0D11010302062458
:101F70002408081010244290008000000000000097
:101F80000000F006010400010090000000001000B5
:101F90000000800200000000000000004400000477
:101FA000000000200002000000001000000000807F
:101FB000000100040106F00000000000000001160E
:101FC0004892204A8080000000400001000000008C
:101FD00000004080A020200072002000A08044006B
:101FE000000480000001004040000080804A201270
:101FF00008160100000000000000000001000020A1
:1020000010000921020204040408080863120ACA25
:10201000200080002000800020CA0A12270808083B
:102020000404045202230100002204000100000005
:10203000000000000000000000000000000000019F
:102040000000100020004040001401C012EC878006
:10205000F48087E812C08114804040002000150001
:10206000000100000000000000000000000000006F
:102070000000000000000000000000000000000060
:10208000000000000000000000000100010001004D
:102090000000000000000000000000000000000040
:1020A0000000000000000000000000000000000030
:1020B0000000000000000000000000000000A00080
:1020C000405080D03048B000F800B04860D0805018
:1020D0004000A000800000000000000000000000A0
:1020E00000000000000000000000000000000040B0
:1020F00000008080D28469693B39A9A9597ABEBEA3
:102100007DBE7FFEFFFE7FBEFDB6B67A58A9A13127
:10211000396968C4D28080200040000000000000BF
:1021200000000000000000004070090402010005EA
:10213000100805C222110804C2310917C53803006E
:10214000FF000318C5070931C2044811224285085F
:102150001005000102243934408000000000000016
:102160000000F80300000062000000000000100002
:10217000020004830000001C130000003F00000068
:10218000011C000000830400020010000000000099
:10219000006200002003F800000000000000030CB3
:1021A00020D082040000000000000002040026008D
:1021B000000001000001000010000000000001000C
:1021C000000006000402000000000080000400C0BF
:1021D000200C0300000000000000000000020922A3
:1021E000040A10122000604080800000E04090F05F
:1021F000184028202D00280018F09040E000808032
:102200008040604028B2100804220902000000004B
:1022100000000000000000000000000000000000BE
:102220000403100010005001068110242223B8027C
:10223000D612B823220415810601500010000003B5
:10224000040000000000000000000000000000008A
:10225000000000000000000000000000000000007E
:10226000000000000000000000010000010000016B
:10227000000000000000000000000000000000005E
:10228000000000000000000000000000000000004E
:102290000000000000000000000080000000A0A07E
:1022A000400010A0F0908080F8808090D0A01000B6
:1022B00040A0A0000000800000000000000000001E
:1022C000000000000000000000000000000000000E
:1022D0008040200054484D4445564A494D5353646C
:1022E000E8D3ECF0FFF0ECD3F86453534D494A4285
:1022F00047444D4A501020C08040000000000000BC
:10230000000000000000008028084601008000282E
:1023100084844D22A21298C96527974BB60B774F3C
:10232000FF0F778F364B992565C988122222448486
:10233000842800800001460A208000000000000080
:102340000000FC010000001400000000600008080C
:102350002601C4200806018238030000FF000003A4
:10236000388201060820C501260808004000000048
:10237000000400000001FC00000000000000031C3D
:10238000C140200200100040000001200000800039
:10239000010080030020000037000020000300003F
:1023A0000100800000000100004002100002200037
:1023B000C01C03000000000000000000000106280F
:1023C00018A04095808001000000000000260080D9
:1023D0008026C2409240C02680800022000000007B
:1023E0000000010880814020102806010100000043
:1023F00000000000000000000000000000000000DD
:102400000201120204045648360AC513A880E008E7
:10241000D808E0808C13C58A3648540414021A0187
:1024200002040000000000000000000000000000A6
:10243000000000000000000000000000000000009C
:10244000000000000000000000000000010000018A
:10245000000000000000000000000000000000007C
:10246000000000000000000000000000000000006C
:10247000000000000000000000008000008080409C
:10248000405020A038202020F820202038A02050C4
:10249000404080800000800000000000000000003C
:1024A00000000000000000000000000000000080AC
:1024B00040301008148B062129405284C89020C156
:1024C0008618C000FF00C01886C1201088845240C2
:1024D0002021020A14081030408000000000000093
:1024E00000000000000000C01816030400000040B7
:1024F000424AB2222222259494DD5556BA7DFEFF2F
:10250000FFFFFE7DBA567555949425222222224A59
:10251000425000100084210610C00000000000009E
:102520000000FC0D02000180002000020808048267
:10253000522191088442334B86610E01FF098E714E
:10254000064B3346040891215282040808020020F9
:10255000008000000009FC00000000000000033BB8
:10256000800048100000002004004100040008061C
:102570000100407007200800FF001800073000002D
:10258000210608000000000004A000000010080060
:10259000803903000000000000000000010618124E
:1025A000A0C08000845001000000880100030800E2
:1025B000000204004C00042200000803000188000F
:1025C00000021100800000C0221008060000000078
:1025D00000000000000000000000000000000001FA
:1025E00002051408141010205028986C1680C6108C
:1025F0007511C680166C9808502010101508140D1F
:1026000003010000000000000000000000000000C6
:1026100000000000000000000000000000000000BA
:1026200000000000000000000101010001000101A4
:102630000100000000000000000000000000000099
:10264000000000000000000000000000000000008A
:10265000000000000000000000008080404060207A
:102660003010101018080808B808080838101010A2
:10267000302060404080800000000000000000002A
:10268000000000000000000000000000000080408A
:102690002018040402032000800020C080010018DC
:1026A000E0000000FE000000E01800008040210073
:1026B0008024200302000458204080000000000015
:1026C00000000000000000E01C06012200000000E5
:1026D0004048424284A8CE10213244BAA847B88864
:1026E000FF88B057A0BA44222118CE8884424240C5
:1026F000510000020030010618E000000000000058
:102700000000FE00000090000000004808082B8830
:102710008848484D2DA5B5563EFF7F7FFF7F7FFF40
:1027200037D69525256D48488888A90808480000AF
:10273000000090000000FC0000000000000007788E
:10274000800000C800000000810181201008248260
:1027500043312816C13E1700FF001738C116083153
:1027600043862508102021098121000000C00000B7
:10277000807007000000000000000000010619281A
:10278000C0A0002000004440110042211000000EB3
:10279000010002001F000200010C00000001C20045
:1027A00010400400002002404020190601000000F3
:1027B0000000000000000000000000000001020214
:1027C000040C101220204140C062F8707000F0002C
:1027D000FE18F0007870F060C04041202010110C0D
:1027E00004020201000000000000000000000000E0
:1027F00000000000000000000000000000000000D9
:1028000000000000000000000000000000000000C8
:1028100000000000000000000000000000000000B8
:1028200000000000000000000000000000000000A8
:102830000000000000000000000080804000200038
:102840001010100038080808480808083800101050
:1028500030002080400080000000000000000000E8
:1028600000000000000000000000000000008040A8
:10287000E0080C020201420000000220000002C039
:1028800000090000E900000800C0020080A042002A
:102890000000420102220C0860408000000000009D
:1028A00000000000000000E07C06010000010000C4
:1028B0000880002040802A0C1020C0250EE0020075
:1028C000FF0002E00C25806010046A804020218017
:1028D000080000000044050658E000000000000069
:1028E0000000FE6100000000000000908484A488C5
:1028F00088989193B2E6A8FDD7E8F7F8FFF9F7E8D2
:10290000D6D5A8E4B29391888888A48484900000E6
:10291000000000000060FC000000000000000378E0
:10292000E000040000200004109012080888C4444D
:102930002416924A271F670FFF0F6F1F265A921601
:102940002444C488080812901000002000000000F1
:102950008070070000000000000000000104182043
:10296000402000000100220209002210040201E2BE
:102970001803A000FF00240318C211020418260047
:102980000902220001001000402218060100000088
:10299000000000000000000000000000000103042F
:1029A0000408140020004402C070E470D001E0105C
:1029B000B910E001F070E460C04044102010140829
:1029C00004040301000000000000000000000000FB
:1029D00000000000000000000000000000000000F7
:1029E00000000000000000000000000000000000E7
:1029F00000000000000000000000000000000000D7
:102A000000000000000000000000000000000000C6
:102A1000000000000000000000000000C00040C0F6
:102A2000A02020204810101038101010582020200E
:102A3000A0C0400080000000000000000000000076
:102A4000000000000000000000000000000000C0C6
:102A500020102804240301010000A400000000004D
:102A60000100020076000000010000000000A40048
:102A7000000141032004281060C000000000000095
:102A800000000000000000C0180E0101000400005A
:102A9000040028000000C0042080027000098000AB
:102AA000FD008088007012802004C00000008800B3
:102AB000048000000041010E18C00000000000006A
:102AC0000000FC0900000200000000808180040872
:102AD000112058C3841820D007388180FF008878DF
:102AE00007C820198483482011081490800400200E
:102AF000000102000089FC00000000000000033912
:102B000080000400000000125010A1232226242C73
:102B1000690BD2D4FBF6F9FCFFFCF9FEF9D4D26BB9
:102B2000292424262221B5101012000000000400E0
:102B30008039030000000000000000000006083893
:102B400040824000420202222211514989452592C9
:102B50000BC51B07FF031BE50B12254589097511E2
:102B6000222202024200408A601008070100000091
:102B70000000000000000000000000000000010252
:102B8000020C0808111022317030984C1F48CC10EC
:102B90009F10EC601F6CB830703122101008080CC8
:102BA0000202010000000000000000000000000020
:102BB0000000000000000000000000000000000015
:102BC00000000000000000000101010001000101FF
:102BD00001000000000000000000000000000000F4
:102BE00000000000000000000000000000000000E5
:102BF0000000000000000000000080000000200035
:102C0000C0908080304040404840404030808090BC
:102C1000C000200000008000000000000000000054
:102C200000000000000000000000000000000000A4
:102C30008040B01018A20C020201010102802000A5
:102C4000088040006D4041800800208002010101A1
:102C500002020C221818B84080400000000000005A
:102C600000000000000000C0302C83010002005072
:102C70000000080000040800000D200000080010FB
:102C80001200000C001020040000080400000A00DC
:102C9000005200000001822C30C000000000000043
:102CA0000000FC0500000002000000000008008099
:102CB00000008830C000001EE0001000FF0010027D
:102CC000E00E0000C0308800008000080200000014
:102CD000000000000005FC00000000000000033AB6
:102CE000C0401004000000A00809902023424C8836
:102CF0009023449A20C77080FF8030C7A09A442355
:102D000090884C422120900808A000004004004018
:102D1000C03A030000000000000000000003042887
:102D200010204084915111121212929494575536EA
:102D3000AF5FBF7FFF7FBF5FAF3655559494921250
:102D400012121111918050A05008040701000000D8
:102D50000000000000000000000000000000000073
:102D60000104120505294808348C4A279986F10880
:102D7000FF00E1869927428C34084A0905051304AF
:102D80000100000000000000000000000000000042
:102D90000000000000000000000000000000000033
:102DA0000000000000000000000000000100000022
:102DB0000000000000000000000000000000000013
:102DC0000000000000000000000000000000000003
:102DD00000000000000000000000000000002000D3
:102DE000801000004008008028002008504000109B
:102DF0000000E00000008000000000000000000073
:102E00000000000000000000000000000000004082
:102E10000000008042442020103010084A6808005A
:102E2000252446464D464624250588484808103046
:102E30001020A0445280000000400000000000006C
:102E400000000000000000004034282402010004BB
:102E50000000810000004800000000110000000098
:102E600026000200001100000000000000008000A9
:102E700000040005022508304000000000000000AA
:102E80000000F80320000060000000000000800443
:102E90000000040000000080000800008000000026
:102EA0000080000008000600000010000400000080
:102EB000006000002003F800000000000000010E88
:102EC00030C00000202000000200102040802608B2
:102ED00020C0008738810000FF000080388740C094
:102EE000210822804022100000000020200062D033
:102EF000200C010000000000000000000000012282
:102F000004484810B1316A64C8C8D192E4E8F1F6C7
:102F1000E8D1ECE0FFE0ECD1B8F6F3E8E492D3C8F6
:102F2000C8646A21B11008080422090000000000EA
:102F30000000000000000000000000000000000091
:102F400004031909090A4A0B3EA31E9EEF673F07B7
:102F5000FF073F63EF963EA32E0B4A0A09090903B8
:102F6000040002000000000000000000000000005B
:102F70000000000000000000000000000000000051
:102F8000000000000000000000010000010000013E
:102F90000000000000000000000000000000000031
:102FA0000000000000000000000000000000000021
:102FB00000000000000000000000800040006040B1
:102FC00000001010009848406840488820105000C9
:102FD0001020600040808000000000000000000021
:102FE00000000000000000000000000000000040A1
:102FF000001000A004400E0000808080804140400E
:103000004A4244404F444440485040458080808478
:103010000000074004A00010004000000000000075
:10302000000000000000008080402410000804041C
:103030000212010111000000040000000200000063
:103040001200000002000000040000001101010253
:10305000420404080010244080000000000000002A
:103060000000F80681000008006000000000090070
:1030700000000004000008000000000088000008B4
:1030800000000800000400000000010000000060D3
:10309000000800000106F800000000000000010622
:1030A000382040B1800000002000080080004082ED
:1030B0002000007000014000F1004001007000009D
:1030C00000824000800008002000004080A14020D5
:1030D000380601000000000000000000000002208F
:1030E000008102520C9429AA4C8890314EAC35FDD7
:1030F000C718C000FF40C038C7DD35ACC63194D812
:103100004C2A29940C520281002002000000000089
:1031100000000000000000000000000000000000AF
:10312000020017152A2A6A6D252EF3FD5EBD7F3E2B
:10313000FF3E7FBF5EEDFB36AD6D682B2A15170095
:10314000020000000000000000000000000000007D
:10315000000000000000000000000000000000006F
:103160000000000000000001000101000100010159
:10317000010100000000000000000000000000004D
:10318000000000000000000000000000000000003F
:10319000000000000000000000008000400020400F
:1031A00010C0001000A08890B8908820401000C087
:1031B000106060004000800000000000000000007F
:1031C00000000000000000000000000000000000FF
:1031D0000000000C02010F000000030008000010B6
:1031E0009000000094000000921000008000030096
:1031F00000000F01020C00000000000000000000B1
:1032000000000000000000000020808040402420DA
:10321000081210100908082808084004444404044F
:10322000440404044404440808080808091010125F
:1032300028202040408082200880000000000000FC
:103240000000F00C020100040000000000008000FB
:103250000000020000000000000000004400000028
:1032600004000000000002000000900000080002BE
:1032700000000001020CF00000000000000000133C
:10328000044A1818202040404080808880000400B4
:10329000604048583624060002000604145848408E
:1032A00060000400808080884040442020921048C4
:1032B00006130200000000000000000000000210E1
:1032C000000000804180C010618185196C82221F3E
:1032D000FC80E008FF00E0807C1722826C1985C129
:1032E000611080C5410002000010060000000000CF
:1032F00000000000000000000000000000010003CA
:10330000040B1E153A2C757BDBF4F9FAF6F9FEF086
:10331000FFF0FEF9F4FAF9FCDA7975283A150E0A8D
:103320000403000100000000000000000000000095
:10333000000000000000000000000000000000008D
:103340000000000000000000010101000101010176
:10335000010000000000000000000000000000006C
:10336000000000000000000000000000000000005D
:103370000000000000000000000080008000A000AD
:103380000030404010482828F828280810404030D5
:103390002000A0008000800000000000000000006D
:1033A000000000000000000000000000000000001D
:1033B00000C000040011530820000001400001403B
:1033C000000000005600000000000100480100005D
:1033D00020084311000400480040000000000000E5
:1033E00000000000000000400080014100002000BB
:1033F000000001000080808A808080808180808041
:1034000081808080818080808882A0800000000090
:103410000000084000430080104000000000000051
:103420000000649008640404020202010191010199
:10343000010100000000C080A0203000E800302022
:10344000A880C000080000000101019101010202F2
:10345000064404640898600000000000000000209A
:1034600003120222040444040808088808181010F3
:10347000E724A41C83000000C4000000811C242455
:103480004710101808880808080C44040422021287
:103490000120000000000000000000000000002CDF
:1034A000001000000080088040004084200002617D
:1034B00008000E00F9000E0008E102002084400020
:1034C00040800800000000200028000000000000EC
:1034D00000000000000000000000000000000006E6
:1034E000050A1C143B327468F2C4E8F0E3C8A0C0BB
:1034F000FFC0E0C8E3F0E8E6F26874363B151C0A4A
:1035000005060001000000000000000000000000AF
:1035100000000000000000000000000000000000AB
:103520000000000000000000010101010101010193
:10353000010000000000000000000000000000008A
:10354000000000000000000000000000000000007B
:10355000000000000000000000008000000080204B
:10356000801010301018B818B818981810301010B3
:1035700080008000000080000000000000000000CB
:10358000000000000000000000000000000080803B
:103590000010000210001280020082100080100053
:1035A0000010000092000010000010800011830045
:1035B0000280100212020010008080000000000053
:1035C00000000000000000404000400040000000FB
:1035D0000000050000000000000000004000C000E6
:1035E0004C00C0404000000000000000000005400A
:1035F000000000004040400040400000000000008B
:1036000000000000002460646060606060646060CE
:1036100060606060BCB0F1F2646061626222202090
:1036200064F2F1B0BC6060606060606460606460BF
:103630006064202400000000000000000000002062
:1036400020022002200002000022000000000000F2
:1036500003000804262030047404302026040800E7
:10366000070000000000000200000200200220020B
:1036700020200000000000000000000000001010EA
:1036800080801000800080100000108000108000FA
:1036900000800000DB00008000008010008010002F
:1036A000001080008000108000101000000000005A
:1036B0000000000000000000000000000000000406
:1036C000040818142C707448D0A0C2CCB0C09080EC
:1036D000FE8090C0B0CCC0E0D06874702C14180884
:1036E00004040000000000000000000000000000D2
:1036F00000000000000000000000000000000000CA
:1037000000000000000000010101010101010101B0
:1037100001010000000000000000000000000000A7
:103720000000000000000000000000000000000099
:103730000000000000000000000080000000A00069
:1037400000102010201838183818381800102030B1
:103750000000C00000008000000000000000000029
:103760000000000000000000000000000000004019
:10377000000000060408811004001002000002008E
:103780000000050061000502000002000002520076
:1037900010508D080406000000408000000000006A
:1037A0000000000000000040000000860021000032
:1037B0000040000000040800E0801830E4000E2003
:1037C000A6200E0064301880A00008000001004010
:1037D0000000000100821000004000000000000016
:1037E00000006490900808080404440404060202DF
:1037F000020202021808494D30008040800080001B
:10380000224B4908180202020202022604040404A0
:103810000408088990906400000000000000002067
:10382000000101110202020202240404040404043F
:103830004404040445040504140405044504040474
:1038400044040404040404060202020202110101F9
:103850000020020000000000000000000000002026
:10386000000800000000108180008100000008C0F6
:1038700000080000CC00000804C008000008810017
:1038800080811000000040080024000000000000BB
:103890000000000000000000000000000000000226
:1038A000070B1C3932747875E6E8D0E1C6D8EA8097
:1038B000FF80E2D0C6E1D1E8F677787432191C0BAC
:1038C00007020000000000000000000000000000EF
:1038D00000000000000000000000000000000000E8
:1038E00000000000000000010101010101010101CF
:1038F00001000000000000000000000000000000C7
:1039000000000000000000000000000000000000B7
:103910000000000000000000000080004000604047
:1039200010A0001040209898B89898A0001000E0CF
:103930002040600040008000000000000000000007
:1039400000000000000000000000000000000080F7
:103950000000080C02018F0240200100800041801D
:10396000101070001A00F01010804100800000005C
:1039700000020F01021C0000008000000000000097
:10398000000000000000008000200480404024204F
:10399000281210101808080863242C38830000012E
:1039A000C101000083382C24620808081810101286
:1039B0002220204040800420008000000000000001
:1039C0000000F00C0601010140000200000180012E
:1039D000000000000000010146000600670006002C
:1039E000060101000000000000018001000002004B
:1039F00040010191060CF4000000000000000003EB
:103A000004480812202040404088808000000400C4
:103A10002000200020000000260000002000000000
:103A20002000040080808080404040202010084812
:103A3000040300000000000000000000000000007F
:103A40000000028040E4801061C1C51961C1030E0D
:103A500072829202FE020282720609C12119C5C158
:103A6000641080A4408002000000000000000000FC
:103A70000000000000000000000000000000000145
:103A8000050A1D153A287579DAF4F9FAF4F9F4F40F
:103A9000FFF0FCFDF4FAF9FCDA797D283A150F0AFB
:103AA000040300000000000000000000000000000F
:103AB0000000000000000000000000000000000006
:103AC00000000000000000000101010101000101EF
:103AD00001000000000000000000000000000000E5
:103AE00000000000000000000000000000000000D6
:103AF00000000000000000000000800040006000A6
:103B000010805010209048405840488000105000CD
:103B10001060600040008000000000000000000015
:103B20000000000000000000000000000000004055
:103B30000010002004400E000084808030458C90EE
:103B400023021E2025241E0263908C453080808431
:103B500000000E40042000100040000000000000A3
:103B60000000000000000000804024101008040441
:103B700042120101010100000602020B2820200070
:103B800070002020280B1202060000010101011222
:103B900002040408101024C080000000000000008F
:103BA0000000F806010020080040000000000800A6
:103BB0000000000400000000000000009800000861
:103BC00000000000000420000080080000000060E9
:103BD000000A00040106F8000000000000000106D1
:103BE000182040910000000020800000000040826A
:103BF0000000007000010000F10000018070000072
:103C000040824000000000802000000080914120A0
:103C10001806010000000000000000000100022062
:103C2000008102C24CB4A82A4C9894B15688B0E0E6
:103C3000A738E060FF20E038A7E0B08856B1909840
:103C40004C2B28B40C52028100200200000000001E
:103C50000000000000000000000000000000000064
:103C60000600171D2A2A6A6DA57EF7FD5EBD7E3E01
:103C7000FF3E7EBD5FFDF33EE56D6A2A3A191704EB
:103C80000200000000000000000000000000000032
:103C90000000000000000000000000000000000024
:103CA000000000000000000101000100010000010F
:103CB0000101000000000000000000000000000002
:103CC00000000000000000000000000000000000F4
:103CD0000000000000000000000000008000600004
:103CE000400080003008E0007800F00820008000EC
:103CF0004000E000800080000000000000000000A4
:103D0000000000000000000000000000000000C0F3
:103D1000000080402220B01008080804139E687339
:103D2000C44885800120854AC47368163304084856
:103D30000810B0202240800000C0000000000000F9
:103D4000000000000000008060940906830100006C
:103D500000010000000080000000000000000000E2
:103D60004D00000000000000000080000000000185
:103D70000000000183120814600000000000000031
:103D80000000FC0300000010000000000000000222
:103D900004000008000004C000020400E400000069
:103DA00000C00400000800000402400000000004FD
:103DB000001000000003FC00000000000000031CD5
:103DC00060900080000000004090001C324091068E
:103DD0001820C4011CE00200FF0002E01C01C22008
:103DE00058069160301800904000000000A000903C
:103DF000601C03000000000000000000000201340D
:103E000008081025C8C89592233428695AD6F46D3D
:103E1000F6E8F7F8FFF8F7E8F6E9F4765A692C24A3
:103E2000229291C8C82110080C3401020000000041
:103E30000000000000000000000000000000000082
:103E400004020404150535672797138ED63F8F07A4
:103E5000FF078F3754AE13172F27350515040C00B5
:103E6000040002000000000000000000000000004C
:103E70000000000000000000000000000000000042
:103E8000000000000000000000010000010000012F
:103E90000000000000000000000000000000000022
:103EA0000000000000000000000000000000000012
:103EB0000000000000000000000080000000200062
:103EC000C09020C0101070003800701010C030106A
:103ED000C000200080000000000000000000000082
:103EE0000000000000000000000000000000004092
:103EF0008040A810082E05020201010102830F0E66
:103F0000198858013B015880190E2E8302010100C7
:103F10000202042208102840804000000000000037
:103F200000000000000000C0302E8205100000508C
:103F30000000040000000800000C20000000001039
:103F400010100000000020040040080000000500E0
:103F5000005000001005A22A30C000000000000040
:103F60000000FC05000000020000000000000080CE
:103F700000001830C000200EE0001000FF0010000C
:103F8000E00E3000C030080000800000100000008B
:103F9000004200000005FC00000000000000033AA1
:103FA000C0401000000000A00809D0202146CD88A4
:103FB000902344BA20C73080FF8030C7A098442B9C
:103FC000908844462130100908A0000000004040BD
:103FD000C03A0300000000000000000000070428B1
:103FE000102050801155111212139294945F55367F
:103FF000AF5FBF7FFF7FBF5FAF365557949493127B
:104000001212115111805020102A040701000000E3
:1040100000000000000000000000000000000000A0
:10402000010512050501480834941235590621206E
:10403000FF202126D93512943508480105051204C0
:10404000010002000000000000000000000000006D
:104050000000000000000000000000000000000060
:10406000000000000000000000000000010000004F
:104070000000000000000000000000000000000040
:104080000000000000000000000000000000000030
:104090000000000000000000000000008080C0C0A0
:1040A000B0C0F06088083880988038288860B0C038
:1040B000A0C04080C0000000000000000000000020
:1040C0000000000000000000000000000000008070
:1040D00020102804040301010000840000000103F3
:1040E000030003040604030003030100000084002E
:1040F00000010102040C281020C000000000000094
:1041000000000000000000C0100601030000008055
:104110000000100A004080040008027000880404B7
:10412000F6000488007002080000804000021000C1
:1041300004A000000001210618C0000000000000DB
:104140000000FC090000020000000004808000085C
:10415000112048C3841860D007388180FF00803860
:1041600007D0601884C36820100801808100000017
:10417000000002000009FC000000000000000339FC
:104180008000040000000012101025222226352C89
:1041900029EBD2D4FBF6FBFCFFFCFBF6FBD6D27B73
:1041A000696424262A23A5101010000000000400D2
:1041B000803903000000000000000000010608181C
:1041C00040804000420A02222211510B89C525126B
:1041D0000BC51B07FF271BC70B522545890951112A
:1041E0002222020A02000080401808060300000094
:1041F00000000000000000000000000000000302BA
:10420000020C1808101032351440604C2B8084804A
:10421000DF8084802B4C404051312200120808047A
:104220000202030000000000000000000000000087
:10423000000000000000000000000000000000007E
:10424000000000000000000001000000010000006C
:10425000010000000000000000000000000000005D
:10426000000000000000000000000000000000004E
:104270000000000000000000000080804000E020FE
:10428000306070E0F010708070807010F0E0F060CE
:10429000302020204080800000000000000000004E
:1042A000000000000000000000000000000080404E
:1042B000B008040202011A00000040000000038060
:1042C00000080000C9000008008002000020400033
:1042D00000004A01220A0C08204080000000000073
:1042E00000000000000000E018060100000100804E
:1042F000088000204180220C1060D0010CE00200F8
:10430000FF0002E00C05C260100C228041200080FA
:1043100008000040000C090618E000000000000042
:104320000000FE6000000000000000908484AC8863
:1043300088989193A6E4A8D3FEE8F7F9FFF9F7E887
:10434000F6DFA8E4A2939198A888BC84849000002A
:10435000000000000061FE0000000000000007787F
:104360008000004000000000509012080888C844F7
:10437000253692CA261FE70FFF9FE71F27CA9334EF
:104380002444CC880808121010000000000000002F
:10439000E070070000000000000000000106182087
:1043A0004008000001002302090022180C0221C26B
:1043B000180B2400FF00200338C005020C1822004F
:1043C0000902230001000068D02218060100000045
:1043D00000000000000000000000000000010204D6
:1043E000040814022040400480848400C0010000BE
:1043F00069000001C000848080024040200415084C
:1044000004040301000000000000000000000000A0
:10441000000000000000000000000000000000009C
:104420000000000000000000010101010101010184
:10443000010000000000000000000000000000007B
:10444000000000000000000000000000000000006C
:10445000000000000000000000008080404060205C
:104460003060F0E0A000F000F000F000E0E0F0408C
:10447000302020404080800000000000000000004C
:10448000000000000000000000000000000080406C
:104490002878040802012024800021C4800001182B
:1044A000C001A000FD002004C118000080C461000C
:1044B0008024020102000C0820408000000000005F
:1044C00000000000000000E01806012200000000CB
:1044D000414842828688CA9021624DBAA046B8C837
:1044E000FFC0B0C7A0FA4C622110CE8886C64248F1
:1044F000410004000032010658E000000000000006
:104500000000FC40000090000000006808092A88B4
:10451000884848692D3FBF567FFF3FFFFF7F7FFFE1
:104520007F5EBF2F2D49484888882B080808000067
:10453000000090000000FE0000000000000007786E
:104540008000008800000001812901209008248259
:1045500043310C07C33A1704FF040738C316083168
:1045600043822408902001098101000000C000005E
:10457000C0700300000000000000000001061820C9
:1045800040A0000000004400100042210000020C86
:10459000018002009F000280010C02000021420005
:1045A0001040040000000020C02018060100000098
:1045B00000000000000000000000000000010206F2
:1045C0000408141220204840C0808000C000000071
:1045D000D600000080008082C040402020121308D6
:1045E00004030201000000000000000000000000C1
:1045F00000000000000000000000000000000000BB
:1046000000000000000000000101010101010101A2
:104610000100000000000000000000000000000099
:10462000000000000000000000000000000000008A
:104630000000000000000000000000008000C0C07A
:1046400060C0D02088E83800F80038C8882090C0C2
:1046500060404040800000000000000000000000BA
:10466000000000000000000000000000000000C08A
:104670002010080420034B415080A408102041A3BF
:104680000E608380FF8083600EA341201008A48405
:10469000404341132204081020C000000000000025
:1046A00000000000000000C0380E0141000000A022
:1046B0008485A88849484D495B7254D6DBFEFBFED1
:1046C000FFFCFFFEFBD754D25B4948484888A885C9
:1046D00084A000000009010E18C0000000000000C6
:1046E0000000FC8900000200000000003090180863
:1046F00084C462321309C53A1BD73B2BFF23BBC7C7
:104700001B36C509133266C48408189030040000B3
:10471000000002000401FC0000000000000003385B
:10472000C0000401000000420800520309002018E4
:10473000060108E11C090000FF0000011CE102194C
:104740000618210009035200004200000001040085
:104750008038030000000000000000000107083856
:104760004080400040002000000050080000000091
:10477000000912020B1000010000000000025000AE
:1047800000002008400000814038080601000000B9
:104790000000000000000000000000000000010216
:1047A000000C080C1000303040406040A080848035
:1047B000D68080C0A0406040503032103008080CD5
:1047C00002020100000000000000000000000000E4
:1047D00000000000000000000000000000000000D9
:1047E00000000000000000000100000001000000C7
:1047F00001000000000000000000000000000000B8
:1048000000000000000000000000000000000000A8
:104810000000000000000000000080000000A0A0D8
:10482000C01030E0D010F000F800F010D0E03010F0
:10483000C0A0A00000000000000000000000000078
:104840000000000000000000000000000000004028
:104850008040301050484444464A4A4957575A7C91
:10486000B9D3FCF5FFF1FCD3B97C5ED747494A4A7E
:104870004644446950103040808000000000000031
:10488000000000000000008030280605000000281D
:104890008CC44522221292C94D2715CB275F670F82
:1048A000FF0F679F27EB95274DC99A122222458457
:1048B000882800000005472828800000000000002C
:1048C0000000FC050000001400000000400000088B
:1048D0000603C520180601C238074400FF00040380
:1048E00038820106182085032708000440000000D4
:1048F000000400000001FC00000000000000031A9A
:104900004040200200100040000000000000802015
:104910000000A00300200000272000210003B200B7
:1049200001200000000000000040001000022040B4
:10493000401A030000000000000000000001063CD7
:104940001020408180400A0000000000002E00007E
:1049500000244000910040640000802E0000000010
:1049600000000A008081C020502A060100000000DB
:104970000000000000000000000000000000000037
:1049800000011302040444482A8888109210101071
:10499000D2101010921080882A4844040402120594
:1049A0000200000000000000000000000000000005
:1049B00000000000000000000000000000000000F7
:1049C00000000000000000000000000001000000E6
:1049D00000000000000000000000000000000000D7
:1049E00000000000000000000000000000000000C7
:1049F0000000000000000000000080008000204057
:104A0000405080D06048C000F800C058609080409E
:104A10004040A04080008000000000000000000036
:104A2000000000000000000000000000000000C0C6
:104A300000008080D2BC6849593929A9F67EFAFB6A
:104A4000FDBE7DFEFFFE7FBEFDFBFA7AFEA9293981
:104A50005949689CD2C0800000400000000000005E
:104A6000000000000000000040942804020104053A
:104A7000100804C662114904C2231926C33C270446
:104A8000FF042338C3361923C204491162C68408BF
:104A900010050241020409B440800000000000003B
:104AA0000000F80300000062000000004000100455
:104AB000020006930000001C010002003F000200FB
:104AC000011C02000083060002001000000000002C
:104AD000002200000003F800000000000000010CAC
:104AE00030D080000000000000000002040024001C
:104AF00000000100000100001000000000000100A3
:104B0000000020000400000000000000000082D02F
:104B1000200C01000000000000000000000209223B
:104B20000448103A2040684080C00000006000083F
:104B3000004420020E002040400800600000008079
:104B400080404800A032500804220102000000000A
:104B50000000000000000000000000000000000055
:104B60000401100010005001018106022A024602D1
:104B7000D60286022A22040101015000100010030F
:104B80000400000000000000000000000000000021
:104B90000000000000000000000000000000000015
:104BA0000000000000000000000100000100000102
:104BB00000000000000000000000000000000000F5
:104BC00000000000000000000000000000000000E5
:104BD0000000000000000000000080804040E0E095
:104BE000D0D0D0F0E8F0F8C0F8D0F8F0E8F0D0D0AD
:104BF000D0E0E040408080000000000000000000A5
:104C00000000000000000000000000000000004064
:104C100080000008948A5A2515934A26558B6B37D5
:104C20004BE71F27FF071FE74B3F6B8B55264A9229
:104C300015255A8A9468000080400000000000009A
:104C40000000000000000000089042241000090449
:104C5000042602060301110D0604157557004000D5
:104C60007F004040577515040E0D11010302822686
:104C7000040009001024409008000000000000001B
:104C80000000F8060104000500900000000010007C
:104C90000000800200000000000400002400000466
:104CA000000000400002000000081000000000109A
:104CB000000500040106F8000000000000000016D6
:104CC0000890204280800000004010000000800416
:104CD000000004002000000026000000200000006A
:104CE000000400000001104000000080804220927B
:104CF000081601000000000000000000010004226E
:104D00001000012102068404050808080D0810108F
:104D10009210109093901010901010080908080835
:104D2000040484160221090010220400010000007E
:104D30000000000000000000000000000000000172
:104D40000000110020004040801400C100A08480B9
:104D5000D48084A400C100148040400420001000CE
:104D60000001000000000000000000000000000042
:104D70000000000000000000000000000000000033
:104D80000000000000000000000001000100010020
:104D90000000000000000000000000000000000013
:104DA0000000000000000000000000000000000003
:104DB00000000000000000000000808040C0E060B3
:104DC000F0F070F078F878F0F8F078F8F8F070F02B
:104DD000F060E0E040808000000000000000000083
:104DE0000000000000000000000000000000008043
:104DF0000008001826530B4535120BC53219858261
:104E0000710CE302FF02E30C7102851922C509123D
:104E100025458B53261C0000008000000000000088
:104E200000000000000000000000001880804040EA
:104E30002424202010101110C748485306000000F9
:104E40000302010006734848C710111012202024E5
:104E500004404080801800000000000000000000B6
:104E60000000F00804020100100200000000080029
:104E7000000000000000020209000C0008000C0005
:104E8000090202000000000000000002000004000F
:104E9000000801020408F400000000000000000106
:104EA0000204088910102220204440504080808055
:104EB0008080808090400000100080809180808001
:104EC0008080888040504140A02020101088090434
:104ED00002010000000000000000000000000001CE
:104EE0000400008042020000000048000C000000A6
:104EF0004901010169012101410000000000000099
:104F000000000002428001200410080000000000A0
:104F1000000000000000000000000000000000038E
:104F200004001C00201050008050A0800CA08000C5
:104F3000E10080A04889A0408000401020001E08A9
:104F40000403010100000000000000000000000058
:104F50000000000000000000000000000000000051
:104F6000000000000000000100000101010101003B
:104F70000000000000000000000000000000000031
:104F80000000000000000000000000000000000021
:104F9000000000000000000000008080C060E0E031
:104FA00070F030F038D83818F81838D838F0F0B039
:104FB000F0E0E060C0808000000000000000000021
:104FC0000000000000000000000000000000804021
:104FD00000200006460B430502010A840201801CE2
:104FE000038000009F000280031C800102841A01DC
:104FF0000305490B46060020000080000000000069
:1050000000000000000000402000001300008000AD
:105010000002010400000400C0003060C8001C4011
:1050200044401C00C8601000C0000400000401805F
:10503000000000200052000020400000000000009E
:1050400000006000909188080808080808640404BB
:105050000404040471119292410000808000000059
:1050600040929211710404040404042408080808FE
:1050700008888091908060000000000000000020FF
:105080001008000181010101011302020202020263
:10509000220202022202030222020702220202026A
:1050A00026020202020242130101110101810008DD
:1050B0001020020000000000000000000000100CA2
:1050C000000004002000200000000200000010008A
:1050D00000100000920000100800100000100200F4
:1050E000000228002000044000041000000000001E
:1050F00000000000000000000000000000000006AA
:105100000000190109206408008040D04090C4804C
:10511000D680C09040D04080000065200900190072
:105120000006000000000000000000000000000079
:10513000000000000000000000000000000000006F
:105140000000000000000000000101010101010158
:10515000000000000000000000000000000000004F
:10516000000000000000000000000000000000003F
:10517000000000000000000000008080C0E0E0E0CF
:10518000F0703038D8381818F8181838D8B8307087
:10519000F0E0E0E0C08080000000000000000000BF
:1051A00000000000000000000000000000008080FF
:1051B00000100002020721030700462B0400280705
:1051C000002C0000670000200007280000330600C4
:1051D0000743050302020010008080000000000069
:1051E00000000000000000404000000C000800002B
:1051F0000000060100000100000000008080800027
:105200001200800084000000000001000000060081
:105210000000000C200C00004040000000000000D6
:1052200000004060606260626060627070B2B09066
:1052300090909090383032341810131414141310C6
:1052400019343230389090909090B0B270606260B3
:1052500060626062606040000000000000000020AA
:1052600020020000500000000001000000000000CB
:105270004F0111094C006008880860004C091101B9
:105280000E00000000008041000001001001000439
:1052900020200000000000000000000000001012AC
:1052A00000820000000000280000200000204000D4
:1052B00000000000440000000000402000402800E2
:1052C00000280000400000810013100000000000D2
:1052D00000000000000000000000000000000004CA
:1052E0000004140006005C05008081C0000100007D
:1052F0007900200100A0818000005A000200120203
:105300000004000000000000000000000000000099
:10531000000000000000000000000000000000008D
:105320000000000000000000000101010101010176
:10533000000000000000000000000000000000006D
:10534000000000000000000000000000000000005D
:10535000000000000000000000008080C0E0E0606D
:10536000F07070F878B85878F87858B878F87070A5
:10537000F060E0C0C080800000000000000000007D
:1053800000000000000000000000000000000040DD
:10539000004000042E054309270225190402153098
:1053A0000E4108007F0008010E3001020419250299
:1053B000050953050E0400400040000000000000F5
:1053C000000000000000004000800043004000009A
:1053D00000200000000010001080828090828080F9
:1053E00083808082808082000002100000100020F4
:1053F000000000500001008000400000000000009C
:105400000000649008080404040202020211010171
:1054100001010101010141C1D9103040404030007B
:10542000D8C0410101010101010101110202220262
:10543000040404080990600000000000000000203F
:105440000911026202240404040808084808080834
:10545000E3221298C0000000C0800000C090122219
:10546000E3088808080808480404042402420211DA
:105470000120020000000000000000000000002CDD
:1054800000000000000020000000000000000201F9
:1054900048000E0059000E000D01020000004000FF
:1054A0004000280010000000002400000000000060
:1054B00000000000000000000000000000000002EA
:1054C00003081C011020530800C008208088010038
:1054D000EA000188802008C04008520010010C003A
:1054E00003060000000000000000000000000000B3
:1054F00000000000000000000000000000000000AC
:105500000000000000000000000101010101010194
:10551000000000000000000000000000000000008B
:105520000000000000000000000000080B00020264
:10553000020100090400000102020000052400101D
:1055400001052401010104240206052406000107C7
:1055500005810310004009040100020A0000000751
:105560000502024000000705830240000004030911
:105570000412010002EF02014041233680000101C4
:1055800002030141726475696E6F204C4C43004107
:10559000726475696E6F204C656F6E6172646F0026
:1055A0000C3211241FBECFEFDAE0DEBFCDBF11E019
:1055B000A0E0B1E0E8E1FBE602C005900D92AA335D
:1055C000B107D9F725E0AAE3B1E001C01D92A23CE2
:1055D000B207E1F71AE2C1EDDAE204C02197FE0159
:1055E0000E947F35C03DD107C9F70E943D320C941F
:1055F0008A350C940000EBE5F1E0A0E0B8E0008013
:105600000EBC8111012C1197A0FDFDCF0192B9F7BD
:105610000DB40895FC0180915A01882311F13FB720
:10562000F89482E08093E9002091F200822F90E0CC
:105630001816190614F481E090E0882339F02898B0
:1056400044E6409359014091F1004083222339F010
:105650002091F200211103C02BE62093E8003FBF08
:1056600008958FEF9FEF08952FB7F89483E080930C
:10567000E9009091E800892F807295FF04C0909115
:10568000F20080E4891B2FBF0895809151018111A0
:105690000DC082E080934D0184E080934E01109212
:1056A000500110924F0181E0809351018DE491E00F
:1056B0000895CF93DF931F92CDB7DEB76983DC01E6
:1056C000ED91FC910280F381E02D41E050E0BE01BC
:1056D0006F5F7F4F09950F90DF91CF91089583E021
:1056E0008093E9008091F200882319F08AE3809387
:1056F000E80008950E94342B90E00895CF93DF9343
:105700001F92CDB7DEB7FC018485958597FD08C053
:105710002FEF3FEF358724870F90DF91CF910895CA
:10572000CE0101960E940A2B019719F4898190E01D
:10573000F3CF8FEF9FEFF0CF0F931F93CF93DF93B4
:105740001F92CDB7DEB78C01FC018485958597FF4C
:105750000BC0CE0101960E940A2B019771F489813A
:1057600090E0F80195878487F801848595850F90EE
:10577000DF91CF911F910F9108958FEF9FEFF1CFA0
:10578000FC018485958597FD0BC09FB7F89482E056
:105790008093E9008091F2009FBF90E00196089508
:1057A0009FB7F89482E08093E9008091F2009FBF58
:1057B00090E00895409147015091480120914501A2
:1057C0003091460142175307B4F49091E800957068
:1057D000E1F39091E80092FD19C08093F10080916F
:1057E00047019091480101968F739927892B19F4ED
:1057F0008EEF8093E80080914701909148010196D7
:10580000909348018093470181E0089580E00895D6
:10581000DF92EF92FF920F931F93CF93DF93D82ED7
:105820008A01EB017B01E40EF51ECE15DF0559F070
:10583000D7FE12C0FE0184910E94DA2B21968111BD
:10584000F4CF0FEF1FEFC801DF91CF911F910F91A0
:10585000FF90EF90DF9008958881EECF0F931F9314
:10586000CF93DF931F92CDB7DEB782E0898342E406
:1058700050E06BE275E580E80E94082C0E94452B01
:10588000DC0112960D911C910115110589F0D801CA
:10589000ED91FC910280F381E02DBE016F5F7F4F9F
:1058A000C801099597FD04C0F80100851185ECCF6A
:1058B00089810F90DF91CF911F910F9108956150D1
:1058C00030F02091F100FC0120830196F8CF289858
:1058D00084E6809359010895AF92BF92CF92DF92F0
:1058E000EF92FF920F931F93CF93DF936C017B0195
:1058F0008B01040F151FEB015E01AE18BF08C01726
:10590000D10759F06991D601ED91FC910190F08198
:10591000E02DC6010995892B79F7C501DF91CF915B
:105920001F910F91FF90EF90DF90CF90BF90AF90BD
:1059300008953FB7F89480913B0190913C01A0916C
:105940003D01B0913E0126B5A89B05C02F3F19F03F
:105950000196A11DB11D3FBFBA2FA92F982F8827EF
:10596000BC01CD01620F711D811D911D42E0660FCA
:10597000771F881F991F4A95D1F708958F929F929C
:10598000AF92BF92CF92DF92EF92FF926B017C01B8
:105990000E94992C4B015C01C114D104E104F10473
:1059A000B9F00E94992C681979098A099B09683E07
:1059B00073408105910580F321E0C21AD108E10806
:1059C000F10888EE880E83E0981EA11CB11CE4CF7C
:1059D000FF90EF90DF90CF90BF90AF909F908F900F
:1059E00008958F929F92AF92BF92CF92DF92EF92E3
:1059F000FF920F931F93CF93DF936C017B018A017A
:105A000080910B01882309F45CC080915A0188239E
:105A100009F457C080914C0180FF05C08091E000DF
:105A200082608093E000E801B12C8AEFA82E93E019
:105A3000892E2AE3922E209711F4BB20D9F10E94DF
:105A4000342B81110AC0AA94AA20D9F161E070E038
:105A500080E090E00E94BE2CEECF8C171D0611F066
:105A60000CF08C2F9FB7F8948092E9002091E80009
:105A700025FD02C09FBFDFCF282F30E0C21BD30B14
:105A8000F701815020F041914093F100FACFE20EEE
:105A9000F31EBB2021F09092E800B12CEBCF809157
:105AA000E80085FDE7CF9092E800BB24B3942097EF
:105AB00009F3F3CF5D9884E680934B01101611062D
:105AC0003CF081E090E0F6019383828310E000E0F7
:105AD000C801DF91CF911F910F91FF90EF90DF9060
